S01B000053657269616C43616C6C526573706F6E7365312E73726563AD
S1130000008000205D010000450100004501000062
S113001000000000000000000000000000000000DC
S11300200000000000000000000000004501000086
S1130030000000000000000045010000B1010000C4
S11300404501000045010000450100004501000094
S11300504501000045010000450100004901000080
S1130060450100003D180000450100004501000065
S113007045010000450100004D1800004501000045
S11300804501000045010000450100004501000054
S1130090000000004501000045010000450100008A
S11300A04501000045010000450100004501000034
S11300B00000000010B5064C2378002B07D1054B37
S11300C0002B02D0044800E000BF0123237010BDC0
S11300D000010020000000006C250000084B10B552
S11300E0002B03D00749084800E000BF0748036815
S11300F0002B00D110BD064B002BFBD09847F9E72D
S113010000000000040100206C250000FC00002019
S113011000000000962110B5054C8901200000F074
S113012033FA200000F032FA0028FAD010BDC0469D
S11301302401002010B5024800F09EF910BDC0460D
S11301402401002003BEFEE7034B10B51B68002BFF
S113015000D0984710BDC0461C01002070B50F495F
S11301600F4CA14204D100F0BDF800F051F80BE0AF
S11301700C4D00238D42F6D0CA18E818A24204D2CE
S1130180006804331060F7E7FEE79042EBD00022EA
S1130190054B06498B42E6D204C3FBE7000000206E
S11301A0000100207025000000010020F407002059
S11301B010B500F02AF8002801D100F01BF810BD9A
S11301C0014B18607047C0461C010020014B1868A1
S11301D07047C0462001002070B5051E07D0044CAE
S11301E0266800F011F823689B1B9D42F9D870BD66
S11301F02001002010B5034A13680133136000F096
S113020035F810BD2001002070470020704770476A
S113021010B501F083F901F07FFEFFF7F8FF01202C
S1130220FFF7DAFF084C200000F000FC200000F08B
S113023075FCFFF76FFFFFF77DFF044B002BFAD02F
S113024000E000BFF7E7C046EF0500200000000013
S1130250014B18607047C046000000200122024B89
S113026052421A607047C04600000020164A10B57A
S11302701368591C27D0013B1360002B23D172B69D
S1130280124B134A0433934207D8BFF34F8F114ADA
S1130290114BDA60BFF34F8F14E001210F4C207D26
S11302A00E4A0842FBD02020118BFF309B085B00D4
S11302B001431183D3610A4B13800123117D194239
S11302C0FCD0E2E7FEE710BD0000002000000000C3
S11302D0030200000400FA0500ED00E000400041C4
S11302E002A5FFFF1E2270B508244D484D494368FE
S11302F093431C3A134343608B6923438B614A4CF9
S11303004A4B9C829C8A14439C82DC681442FCD035
S1130310474A0124160014701578254203D07578D5
S11303206DB2002DF8DB01249460547864B2002C83
S1130330FBDB404D3E4C6560547864B2002CFBDB23
S113034082253B4CED016580547864B2002CFBDBC4
S113035080259C8CAC439C841024DD682542FCD011
S1130360324C354DE5621024DE68304D2642FBD018
S1130370AC8C324E3443AC841024DE682B4D2642C0
S1130380FBD00226AC8C3443AC8440247E36DD683A
S11303903542FCD0254DED682542F8D01024DD68A7
S11303A02542FCD000249460547864B2002CFBDB1A
S11303B0234D1F4C656054781D4D64B2002CFADB4C
S11303C01E6A204C34408026760034431C621C6A2A
S11303D0803EB4431C620323AB601B4B6B605378B9
S11303E05BB2002BFBDB0023184A0B724B728B723F
S11303F0CB72174B1A60174B1C68174BA1061B686E
S11304006401DA0EFF23490F234009021343134A00
S11304100B431385802243681343436070BDC04679
S113042000400041000400400C06000000080040A9
S1130430000C004001050100B805FF7D040A00001E
S113044000070300FFFCFFFF03060100006CDC0251
S11304508000002024608000206080000040004272
S11304603F20704713B56B460268D971073354684F
S113047019000122A04716BD10B50221006900F041
S11304804DFC10BD10B50321006900F05DFC10BDEA
S113049010B5130004000A000069032100F050FDA8
S11304A0002801D10123636010BD0000074B020046
S11304B0186810B5411C03D0012252421A6003E0AF
S11304C00221106900F02EFD10BDC046540000202A
S11304D010B5054C23685A1C04D10368DB6898479F
S11304E003002060180010BD5400002010B50378EC
S11304F04222023303700249024800F0D3FD10BDCA
S113050010000020EF05002010B5017803004278A8
S11305100020A12908D1212A2ED11A3A17491848B6
S113052000F0C0FD012027E0212925D1202A05D192
S1130530193A1249124800F04DFC04E0222A12D163
S11305409A780E4BDA7196220C4BD20019689142BC
S11305500FD1D87901231840041E0AD1FA20FFF7DD
S113056077FE200008E0232A06D15A88054B1A603A
S113057002E0FFF773FE002010BDC0460400002017
S1130580EF0500200C0000207047000010B5FFF7B5
S11305901DFEF423FF330024984207D9044B0A209C
S11305A0DC79631E9C41E4B2FFF716FE200010BD07
S11305B004000020FA220021054B92009A60054AAB
S11305C0596008321A60044A19761A617047C046A5
S11305D024010020B0200000EF05002070B5C024E5
S11305E0194EC3B25A01B21895681849A4050D40B2
S11305F025439560164D8001281850603068072601
S113060008335B011D5CB543063E35431D549669B2
S113061031402143702491610E495161195CA14319
S1130620603C2143195494680B49C3182140802429
S11306306403214391609168890B8903916040218F
S11306405A790A435A7170BDF8050020FFFFFF8FE5
S1130650100400204C020020FF3F00F070B504009D
S1130660012104CC0500137820000B431370802271
S11306700021520001F089FC2B689A78D207FCD43F
S11306805C6270BD1F22144BF0B51B68590B9C0CA7
S11306909B0111405B0F22401F2900D11A391F2AE8
S11306A000D1023A072B00D1043B1F2506688C01B8
S11306B0378D0A492A403940214331850468218D08
S11306C0A9430A43228501681A03088D044B034099
S11306D013430B85F0BDC046246080003FF8FFFF44
S11306E0FF8FFFFFEFF3108303600123436072B6B3
S11306F070470368002B02D162B6BFF36F8F704757
S113070037B5056904006846002D13D1FFF7EAFFE9
S1130710019B621D013B02D3D57FEDB2FAE7684627
S11307200193FFF7E6FF002D01D1002016E0236AB4
S1130730E06912E00025FFF7D5FF019B013B04D3DC
S1130740220034321578EDB2F8E768460193FFF7DA
S1130750D0FF002DE9D0236BE06A181A3EBD0000DB
S1130760436830B51968FF23012482681A40520196
S11307708A18D218917A21439172826841681A408A
S113078052018A18C16895688C040D4924092940CE
S113079021439160826841681A4052018A18916825
S11307A0890B89039160816842680B40402112687B
S11307B008335B01D3181A790A431A7130BDC04655
S11307C0FF3F00F073B5436804001868FF23A16875
S11307D019400A00083252018218D179C90752D54A
S11307E00125D571A26860696168134000281DD194
S11307F05A018B189A6865619204920C2262A26A6B
S113080068465A60631DDD77FFF76CFF2100019B8A
S11308103531013B5A1C2FD0220034321278581E35
S1130820D2B2002A1ED10A700300F3E75B01CB1891
S11308309A6868469204920C226300226261A2695B
S1130840661D5A60FFF74EFF2100019B3531013BC5
S11308505A1C11D0220034321570F27F581ED2B2C5
S1130860002A06D00193012368460B70FFF741FF6D
S113087009E00A700300EBE768460193FFF739FFCC
S11308802000FFF76DFF73BDF7B5056904000F0085
S113089016006846002D19D1FFF724FF019B601D47
S11308A0013B5A1C05D0C27F591E002A40D00B00C0
S11308B0F7E768460193FFF71CFF0022E3699642BD
S11308C043D0216A8B4238D316003EE0FFF70AFF7B
S11308D0019B013B5A1C08D02200343215785A1E61
S11308E0EDB2002D24D01300F4E7684601930025EF
S11308F0FFF7FFFEE36AB5420AD0226B934207D2A8
S11309005A1CE262A26AD3181B787B550135F1E7C1
S1130910226B93424FD100236846E3622361FFF7C1
S1130920E1FE22000026019B3532013B591C32D1E5
S113093068460193FFF7DDFE3DE0591CE161A169C2
S1130940CB181B78BB540132B8E7226A934220D1FA
S11309500023E361013323616846FFF7C3FE2200ED
S11309600027019B651D013B3532591C0DD0EF77E3
S11309701178581E002901D10300F6E701930023E2
S113098020001370FFF7ECFEE9E768460193FFF7D8
S1130990B0FE35000FE0210034310E701178581E7E
S11309A0002901D10300C1E7019300232000137043
S11309B0FFF7D6FEB5E72800FEBD37B56B46DC1D54
S11309C000230D0020002370FFF790FD2B681818FA
S11309D0286001F0ADF9210001F066F92B681818C0
S11309E0286020783EBD000003290CD180200E4BE6
S11309F062311B68FF315A5C404202435A546339E6
S1130A00FF3968220DE001290DD18020064B2431E5
S1130A101B68FF315A5C404202435A54282223394E
S1130A20FF39FF3299547047F805002070B500254E
S1130A302F4B012104001A201D7000F01BFE012120
S1130A401A2000F06BFE2B4B012119201D7000F0C1
S1130A5011FE0121192000F061FE2021264A0135F2
S1130A60D3690B43D361254A1A3913782B43137086
S1130A700F22234B18789043187018780843187085
S1130A80204801782943017019780A4060211A70BE
S1130A901A780A431A701C4B1C4A5A805A78D20995
S1130AA0FCD11B48FFF78CFB1A4D2800FFF7D6FD3D
S1130AB02800FFF7E7FD7F222B68C120197880000A
S1130AC00A4004211A701A780A431A701A890831E4
S1130AD08A4311491A810A581202120A0A508022C2
S1130AE00A6002211A780A431A700123237070BD28
S1130AF00C040020F4050020000400405844004188
S1130B003C44004159440041000C004006400000B0
S1130B10FD140000F805002000E100E00078002842
S1130B2010D00121084B1B681A898A431A811A8B39
S1130B3007310A431A831A8B04390A431A830022A1
S1130B40024B1A607047C046F8050020FC060020DE
S1130B500E4A8020936940429B0B9B039361136868
S1130B600222FF331A729A7902439A711A7A92070F
S1130B70FCD57F20064B01409A7A82431143997237
S1130B8080219A7A49420A439A727047F8050020F4
S1130B900050004110B50B790C00002B0BD108005C
S1130BA0FFF7B2FC002804D1094A93699B0B9B030D
S1130BB0936101200BE001F0BBF8210001F0A8F8DB
S1130BC00028F6D1024A93699B0B9B03936110BDE5
S1130BD0F8050020F8B50D00832A16D14148CBB2A0
S1130BE0590141188E69404AAD013240C026B6050C
S1130BF032438A613D4A083355194D6101687020BA
S1130C005B015A5C8243303862E0022A42D13820C8
S1130C1000F06EFE364B802703600023314E7F00C8
S1130C20421D036203614361C36146608560C7601E
S1130C30D3772F320400C3620363137038005370F8
S1130C4001F090F9A061380001F08CF9FF232A002B
S1130C501A40A0625001301887682349083239408D
S1130C60C027BF0539438160306807265201115CF3
S1130C70AD00B143043E31431154A2682000134037
S1130C8062685B01D318A2695A60FFF769FD194BCA
S1130C90EC5025E0822A1ED11248CBB259014118EA
S1130CA08E69114A80243240C026B60532438A61D7
S1130CB00E4AAD0155194D61083301685B01C8182E
S1130CC0027964422243027170205A5C82434038A4
S1130CD002435A5404E0002A02D10800FFF77EFCC4
S1130CE0F8BDC046F8050020FFFFFF8F4C0200202E
S1130CF0DC200000D005002070B505000124064B5F
S1130D00A200D258002A05D021002800FFF762FF74
S1130D100134F4E770BDC04658000020084B8A0037
S1130D20D05810B5002803D003689B68984706E0A4
S1130D30C9B2044B4901591888688004800C10BD5D
S1130D40D0050020F805002010B50C00FFF7E6FFE1
S1130D5000280CD08022064BE4B2196808346401E0
S1130D6009194B79524213434B710223CB7110BDC5
S1130D70F8050020144AF0B5CBB289015118134A82
S1130D805C0110194160856811494027294080257C
S1130D90AD022943816081680833890B890381602E
S1130DA010685901461835793D4335714518AD79B8
S1130DB06D06FBD55B01C118C979C907FBD51419A8
S1130DC0A068C0B2F0BDC04610040020F8050020A1
S1130DD0FF3F00F070B50D0040210B4B14001B6861
S1130DE0FF335A790A435A710021FFF7C3FFA04227
S1130DF000D9200000230549A34203D05A5CEA54D9
S1130E000133F9E770BDC046F80500201004002046
S1130E1030B5C9B20B4C4901601883689B049B0C24
S1130E203F2B07D9403B85689B049A0CAB0B9B0373
S1130E30134302E083689B0B9B03836061188868FB
S1130E40C0B230BDF8050020F0B51C00304B85B0B1
S1130E501B6806000D000192002B52D02D4F3978EB
S1130E60C9B2002902D1192000F058FC64233B7058
S1130E70294BAA00D058002805D0036822005B68DB
S1130E800199984741E029003000FFF747FF844269
S1130E9004D929003000FFF741FF04002900300085
S1130EA0FFF7B6FF0121EBB21C4F03935B010293E2
S1130EB0029A3B6801989B18FF335A7A0A431849EF
S1130EC05A72AB01C918220001F056F8002C1BD04D
S1130ED029003000FFF722FF002815D14020039B92
S1130EE0396808335B01CB181A7902431A7101225D
S1130EF0DA71029BCB180121FF339A7A0A439A7262
S1130F0002E00120404200E0200005B0F0BDC046F0
S1130F10FC060020F4050020D0050020F805002080
S1130F201004002013B56B46DC1D22000123FFF7DB
S1130F308BFF012801D1207801E00120404216BD39
S1130F40F0B51D003D4B85B01B680E000392002BCD
S1130F506FD08023DB019D426BD8394C2178C9B214
S1130F60002902D11A2000F0D9FB64232370002346
S1130F700193002D52D0334F3B680293FF2333403B
S1130F801C0000930834029B64011B199B79DB0944
S1130F9015D02D4B2D49186800F032FF2C4B17212A
S1130FA0584300F02DFF2B4B029A1219D279920765
S1130FB005D49A5D002A33D1013831D3F4E70022F5
S1130FC0244B2C1E9A553F2C00D93F24224FB301A9
S1130FD0FF1822000399380000F0CEFF009B194A45
S1130FE05B01D3185F619869A204910C820B920390
S1130FF00A439A61009B029A08335B01D3180222C8
S11310008021DA715A7949420A435A71019B2D1B96
S11310101B190193039B1B190393AAE701980AE088
S113102001229A55009B5B01FF18BB699B0B9B0334
S1131030BB610120404205B0F0BDC046FC06002063
S11310400C040020F80500208000002040420F001E
S113105070110100440200204C02002070B50C0005
S11310601D000D4EA301F618110030002A0000F0F7
S113107083FFE1B24C010949094B09194E618A69A0
S113108013408B618869AB049A0C830B9B03134355
S113109028008B6170BDC0464C020020F80500207A
S11310A0FF3F00F0F7B5114B01901B780F001500BE
S11310B0002B18D10E4B16001C78002C08D00D4EB6
S11310C00D4834880019641900F056FF34800AE092
S11310D0002E08D03A19330000210198FFF7BEFF13
S11310E02418361AF4E72800FEBDC046EE05002099
S11310F0EC0500204202002041010020F8B5002048
S113110000AF0E00151E012D27D9D31D6A46DB083A
S1131110DB00D31A9D46080000F0A8FF6C460323A9
S1131120022200210130400020706370AA420DD2D7
S1131130307800280AD0531CDBB20136A0549D42FB
S113114003D00232E154D2B2F0E72A00210004486D
S1131150FFF7A8FF431E9841C0B2BD46F8BDC04684
S1131160EF050020F0B50027012687B01E4B009143
S113117002A91E7005000297FFF71FFC03AC019043
S113118009223900200000F000FF09232370022304
S113119063707E33E3717A332372029B6671093381
S11311A063806B461B7923710F4B1F70009B092BC7
S11311B002D11A00210011E00C4B09221E700C4EC2
S11311C02100280002973780FFF76CFF02A928004E
S11311D0FFF7F3FB054B328806491F702800FFF721
S11311E061FF012007B0F0BDEE050020EC050020F2
S11311F0420200204101002070B5CE788AB005007B
S11312000C00022E07D1C9882148FFF7ABFF431E0B
S11312109841C0B23AE000F08BFD210000F059FD86
S1131220002803D0C317181AC00F2FE0012E04D1D1
S1131230E2881849112A24D820E0032E26D1A37865
S1131240002B04D1E2881449032A17D919E0022B90
S113125002D1A279114903E0012B05D1A2791049E9
S11312602800FFF74BFF11E0032B0FD100F060FDC6
S113127001A900F03EFDA27901A9F1E7D2B2002A4A
S113128000D10A782800FFF70DFF01200AB070BDD5
S1131290EF050020F8200000F42000000A210000DF
S11312A0E820000073B5060048780D000B283DD8EF
S11312B000F09CFD06163C273C383E7042466467AD
S11312C0097801AA002906D1022311705170300057
S11312D0FFF7C4FE2AE00023137053702E4B07E07F
S11312E08A780023012A09D101AA137053702B4B69
S11312F01B78012B00D1137002231FE0264A1370C0
S113130042E08C78012C06D10021244B01AA1C70E8
S113131011702300DBE7002C04D101201E4B204A6E
S1131320187026E0A9783000FFF712FC012032E0A3
S11313303000FFF761FF2EE001231A4A0021C6E7BF
S11313400B780020DB0626D13000FFF7D5FC2A20DD
S11313500224AA78134BFF301A60114A1368195CEF
S113136021434A241954FF34195D2938FF380143B5
S1131370195593699B0B9B0393610CE001230A4A63
S1131380DCE78A78084B1A60054A93699B0B9B0338
S11313909361CBE7002076BD40010020ED050020DD
S11313A0F8050020FC060020F00500204B4BF7B5A3
S11313B01D780700002D00D08FE0494C23689B8BDB
S11313C01B070DD52800FFF709F92268102011002A
S11313D0FF318B7A03438B72424B1D600823938346
S11313E023689A8B52071FD504229A833E4A1378A6
S11313F0002B0AD01378013BDBB213701378002B57
S113140003D101211A2000F089F9384A1378002BFE
S11314100AD01378013BDBB213701378002B03D18D
S11314200121192000F07AF92368FF331A7AD206D1
S113143026D5102240211A725A7938000A435A716B
S113144060232B490A781A4202D1FFF72BFF01E0EF
S1131450FFF7A0FB002806D0802123684942FF3310
S11314609A790A4301E02022224B9A712368FF33C0
S11314701A7A520604D5402119725A7A0A435A72CA
S1131480236800261D8C01239D43EDB20193F1B224
S1131490002D22D02B003341019A134215D0330082
S11314A0226808335B01D318DA79D20702D4DB79D6
S11314B09B0707D5104BB200D058002809D0036809
S11314C01B689847019BB3409D430136092EDED12A
S11314D003E03800FFF788FAF4E7F7BDEC050020D5
S11314E0F8050020FC0600200C040020F405002070
S11314F010040020FF500041D005002010B5024820
S1131500FFF754FF10BDC046EF050020014A024B0F
S11315101A60704700500041F8050020FA21334B4F
S113152010B51868890000F06BFC314B0138984203
S113153024D83049304A4860C020136A00061B0290
S11315401B0A03431362002407238C600B60802171
S1131550136A09061B021B0A0B43FC211362274B67
S11315601A6A0A43FC211A621A6A89010A43A021F1
S11315701A621A6AC9020A431A6200E0FEE72000EE
S11315800021013400F076F8142CF8D11C4A537869
S11315901B4C5BB2002BFADB1A4B1B4963804B7E5E
S11315A0194ADB09012BFAD0E423DB0093803F23A3
S11315B0D370537E1449DB09012BFAD0C0230020D9
S11315C05B010B61887000F025F863785BB2002B37
S11315D0FBDB0E4A0A4B5A800D4AD379DB09012BF7
S11315E0FBD041220A4B5A7010BDC0468000002037
S11315F0FFFFFF0010E000E000ED00E00004004009
S1131600000C00401E400000004000422140000049
S11316100048004210B5154C144A617E1300C909F4
S11316200129F9D00138042813D81969104A0A404D
S11316300F211A615A788A4300F0D8FB0305090781
S113164003000E3902E00C3900E00D390A435A70E8
S11316500AE0F021136909050B430F211361537844
S11316608B430D390B43537010BDC04600400042FC
S1131670FFFFFFF0182270B516000500464308204E
S1131680244B9E1930561C00431C41D003293FD8DB
S1131690130008006B43E256E31800F0A7FB02288E
S11316A00E1B02205968D3011B4A9B185A1840325A
S11316B0107001228A405A602AE006205968D3013A
S11316C0154A9B185A184032107001228A405A60F9
S11316D09A611DE006205968D3010F4A9B185A18D5
S11316E04032107001228A405A605A6110E002248C
S11316F05868D301084A9B181A18403211782143BC
S1131700117011782419A1431170012282409A604A
S113171070BDC0461821000000440041182308226F
S11317205843F0B5124E33189A5601321ED0012296
S113173015005C688357A5400E48DB011E18B0688D
S113174028420CD10800471EB841024090000422F0
S11317503419403426789643320002432270054AF5
S11317609B18002901D15D6100E09D61F0BDC04678
S11317701821000000440041F8B518230200434337
S113178008202C4CE31818562300040001304ED0D6
S1131790481C00240C284AD800F028FB471A1A1ABF
S11317A01A1A1A1A1A0707070700092901D1002172
S11317B002E00A2904D108391000FFF75BFF23E097
S11317C000240B2933D10A391000FFF753FF2EE010
S11317D01820424398184668012534009A562C4034
S11317E0D3017008144A002C10D09A180F23101833
S11317F030300478090123401943C9B293190170A8
S113180040331A7815431D70002410E00F279B18ED
S11318101818303002789B19BA431143C9B20170C9
S113182040331A7815431D7001E0012464422000FE
S1131830F8BDC046182100000044004110B502481C
S113184000F0ACF910BDC0466007002010B5024896
S113185000F0A4F910BDC04600070020F7B501242C
S11318600326154F1549380000F046F81449154869
S113187000F042F81449154800F03EF814491548A0
S113188000F03AF81449154800F036F8144D15499B
S1131890280000F031F8390000962300019400225A
S11318A0114800F055F90096290001941E231F22C7
S11318B00E4800F04DF9F7BDC007002000080042B3
S11318C0000C0042C407002000100042C80700209A
S11318D000140042CC07002000180042D00700206A
S11318E0D4070020001C00426007002000070020ED
S11318F010B500F037FB10BD01607047F0B515005E
S113190005AA147802689F1E944616687A1E9741A9
S11319106246AD0735433F063D431560072211403B
S11319200A000568A00102436E680020022B00D063
S113193058033100114301436960F0BD30B5C0253F
S11319401205AD032A40C0250468AD0223680904CA
S11319501A43294011432160026853682B435360A2
S113196030BD0121026813680B43136003681A68D1
S1131970D207FCD4DA69D207F9D47047022102688D
S113198013680B4313600268D3699B07FCD4704748
S113199003681A7ED20702D41A7E9207FCD57047D8
S11319A0002203685A8370470368187E4007C00FFB
S11319B070470368187EC009704780210268494255
S11319C0137E0B43137670470368188DC0B27047BB
S11319D003681A7ED207FCD589B2012019857047A5
S11319E00368224A30B5934211D0214A934211D060
S11319F0204A934211D0204A934211D01F4A934265
S1131A0011D01F4A93422FD10E2319220DE009232E
S1131A1014220AE00A23152207E00B23162204E00D
S1131A200C23172201E00D2318220121D8B2814092
S1131A30144C9B08216003210140FF209B001B19CB
S1131A40C024C9008840A4001D598543C020884093
S1131A500100294319518023DB011A430A4B5A80A0
S1131A605A7852B2002AFBDB30BDC046000800425F
S1131A70000C004200100042001400420018004212
S1131A80001C004200E100E0000C0040F8B5040036
S1131A900F0016001D00FFF7A3FF2000FFF761FFF2
S1131AA01C23BA00134072072168120C13430B6005
S1131AB0842322689375012F1AD11021012E00D09E
S1131AC008390C4B69431868C00000F099F90723E2
S1131AD0216803408D895A03EB04DB0C13438B818B
S1131AE0216800048A89C30C500B40031843888181
S1131AF0F8BDC046800000200120704710B503687F
S1131B001322DB69984710BD10B504000069FFF784
S1131B1028FF2000143000F047F910BD10B500690B
S1131B20FFF736FF10BD10B5143000F04FF910BDAB
S1131B3010B5143000F050F910BD10B5143000F099
S1131B4037F910BD10B50069FFF742FF012010BD41
S1131B50F7B51D0008AB1B780400009309AB1B7894
S1131B601600019300234360FA239B0083600A4B11
S1131B700F0008330360143000F000F96A462300B4
S1131B8012785C3327619A706A4612791E705D7010
S1131B902000DA70FEBDC0463825000010B50400F0
S1131BA00069FFF701FF002807D02069FFF70CFF49
S1131BB001002000143000F0ECF82069FFF7F9FE72
S1131BC0002805D02069FFF7F8FE2069FFF7E8FE3A
S1131BD010BDF02319403039080041424841704794
S1131BE0F0231B011940802306209B0099420AD050
S1131BF00133FF330130994205D0802302385B0062
S1131C00994200D0002070470F2300201940012979
S1131C1004D002394B424B410230C01A70470000D5
S1131C200300F0B5182585B003915C3304001878DF
S1131C302B00082143431B4F1600FB185956FFF78E
S1131C409BFD230008215D33187845437F1979569D
S1131C50FFF792FD0122039B11002069FFF716FF95
S1131C6031002000FFF7BCFF310005002000FFF722
S1131C70CBFF310007002000FFF7ABFF3B000090D3
S1131C80290020690122FFF739FE23005E331A7808
S1131C9059782069FFF752FE2069FFF76FFE05B0FF
S1131CA0F0BDC0461821000070B50E000024456840
S1131CB0002D09D02B6831005B6828009847002864
S1131CC004DB2418ED68F3E7200001E00120404222
S1131CD070BD70B50D004468002C08D0236829003D
S1131CE09B6820009847002802D1E468F4E72000AC
S1131CF070BD70B50D004468002C07D0236829001E
S1131D002000DB689847E4682D18F5E72C7070BD57
S1131D1070B50D004468002C08D0236829001B68A6
S1131D2020009847002802D1E468F4E7200070BD41
S1131D300121064A10B5136805480B4005D1022459
S1131D400470241944704360116010BDE007002042
S1131D50D8070020F7B506000D000C008B1801937E
S1131D60019B671B9C4207D0336821781B683000B5
S1131D70984701340028F3D13800FEBD10B5402245
S1131D800021040000F001F90023200023646364AF
S1131D9010BD3F23026C10B5541C2340446C9C427C
S1131DA001D08154036410BD00230364436470476D
S1131DB0436C026C934206D03F21C25C01330B405A
S1131DC04364100001E0012040427047036C406C02
S1131DD0181A00D540307047436C026C934201D00E
S1131DE0C05C01E0012040427047000002B471462B
S1131DF049084900095C49008E4402BC7047C0464A
S1131E00002243088B4274D303098B425FD3030A35
S1131E108B4244D3030B8B4228D3030C8B420DD348
S1131E20FF22090212BA030C8B4202D312120902D6
S1131E3065D0030B8B4219D300E0090AC30B8B4214
S1131E4001D3CB03C01A5241830B8B4201D38B03C2
S1131E50C01A5241430B8B4201D34B03C01A524167
S1131E60030B8B4201D30B03C01A5241C30A8B42AA
S1131E7001D3CB02C01A5241830A8B4201D38B0295
S1131E80C01A5241430A8B4201D34B02C01A524139
S1131E90030A8B4201D30B02C01A5241CDD2C309AB
S1131EA08B4201D3CB01C01A524183098B4201D327
S1131EB08B01C01A524143098B4201D34B01C01A12
S1131EC0524103098B4201D30B01C01A5241C3088A
S1131ED08B4201D3CB00C01A524183088B4201D3F9
S1131EE08B00C01A524143088B4201D34B00C01AE5
S1131EF05241411A00D20146524110467047FFE751
S1131F0001B5002000F006F802BDC0460029F7D054
S1131F1076E770477047C0460E4B70B500251E002B
S1131F200D4CE41AA410A54204D0AB00F358984712
S1131F300135F8E700F0B0F8084B00251E00084C06
S1131F40E41AA410A54204D0AB00F3589847013515
S1131F50F8E770BDE8000020E8000020E800002059
S1131F60F800002010B5034B0100186800F016F8C3
S1131F7010BDC046E4000020002310B59A4203D0EF
S1131F80CC5CC4540133F9E710BD030082189342BA
S1131F9002D019700133FAE770470000032370B5CB
S1131FA0CD1C9D43083506000C2D01D20C2505E0FF
S1131FB0002D03DA0C230020336040E0A942F9D855
S1131FC01F4B1C681A002100002913D00B685B1BEF
S1131FD00DD40B2B02D90B60CC181EE08C4202D11D
S1131FE0636813601AE04B6863600C0016E00C0031
S1131FF04968E9E7134C2368002B03D1300000F053
S113200023F820602900300000F01EF8431CD1D0D2
S11320100323C41C9C43A0420AD12560200007224C
S11320200B30231D9043C31A09D05A42E25006E0F4
S1132030211A300000F008F8431CEED1BAE770BD55
S1132040E8070020E4070020002370B5064C0500D3
S11320500800236000F012F8431C03D12368002B0E
S113206000D02B6070BDC046F00700200023C25C86
S11320700133002AFBD1581E70470000044A13683C
S1132080002B03D01818106018007047014BF9E7B3
S1132090EC070020F4070020F8B5C046F8BC08BCE3
S11320A09E467047F8B5C046F8BC08BC9E467047CB
S11320B0000000000000000065040000910400001E
S11320C079040000AD040000D10400008504000080
S11320D0610400000000000000000000C5070000CB
S11320E0890800000107000041726475696E6F2061
S11320F04C4C43000403090412010002EF020140A6
S113210041234D8000010102030141726475696E2F
S11321106F205A65726F0000000000000B00000081
S11321200200000004000000FF00FFFFFFFF0B009F
S1132130000000000A00000002000000040000008B
S1132140FF00FFFFFFFF0A00000000000E00000078
S11321500800000004000000FF00FFFFFFFF0E0066
S11321600000000009000000040000001C00000042
S1132170FF00010001000900000000000800000049
S1132180040000001C000000FF000000000010001C
S1132190000000000F000000040000001C0000000C
S11321A0FF00010301030F00000000001400000001
S11321B0050000002C000000FF00020002000400E3
S11321C000000000150000000800000004000000EA
S11321D0FF00FFFFFFFF05000000000006000000F5
S11321E0040000001C000000FF00000100010600C4
S11321F00000000007000000040000001C000000B4
S1132200FF000101010107000000000012000000AE
S1132210040000001C000000FF0000030003020093
S11322200000000010000000040000001C0000007A
S1132230FF00000200020000000000001300000084
S1132240050000002C000000FF0003000300030051
S11322500000000011000000040000001C00000049
S1132260FF00010201020100000000000200000062
S113227001000000020000000000FFFFFFFF020059
S11322800100000008000000010000001800000028
S1132290020000040004080001000000090000001E
S11322A001000000180000000300010401040900FB
S11322B00000000004000000010000000000000015
S11322C00400FFFFFFFF0400000000000500000001
S11322D001000000000000000500FFFFFFFF0500F3
S11322E001000000020000000100000000000000E6
S11322F00A00FFFFFFFF02000000000016000000BC
S11323000200000004000000FF00FFFFFFFF0600C2
S1132310000000001700000002000000040000009C
S1132320FF00FFFFFFFF0700000000000C0000009B
S11323300300000004000000FF00FFFFFFFF0C008B
S1132340010000000A000000030000000400000077
S1132350FF00FFFFFFFF0A00010000000B00000068
S11323600300000004000000FF00FFFFFFFF0B005C
S113237001000000030000000B0000000400000046
S1132380FF00FFFFFFFFFF00000000001B00000034
S11323900B00000004000000FF00FFFFFFFFFF0030
S11323A0000000001C000000060000000000000007
S11323B0FF00FFFFFFFFFF00000000001800000007
S11323C00600000000000000FF00FFFFFFFFFF0009
S11323D000000000190000000600000000000000DA
S11323E0FF00FFFFFFFFFF000100000016000000D8
S11323F00300000000000000FF00FFFFFFFFFF00DC
S113240001000000170000000300000000000000AD
S1132410FF00FFFFFFFFFF000000000016000000A8
S11324200200000000000000FF00FFFFFFFFFF00AC
S1132430000000001700000002000000000000007F
S1132440FF00FFFFFFFFFF0000000000130000007B
S11324500200000000000000FF00FFFFFFFFFF007C
S11324600000000010000000020000000000000056
S1132470FF00FFFFFFFFFF0000000000120000004C
S11324800200000000000000FF00FFFFFFFFFF004C
S11324900000000011000000020000000000000025
S11324A0FF00FFFFFFFFFF00000000000D00000021
S11324B0040000000C000000FF000100FFFF0D00FD
S11324C00000000015000000050000000C000000E2
S11324D0FF000300FFFFFF000000000006000000F3
S11324E0040000000C000000FF000001FFFFFF00DB
S11324F00000000007000000040000000C000000C1
S1132500FF000101FFFFFF000000000003000000C6
S11325100100000002000000FF00FFFFFFFFFF00BA
S113252000000000020000000100000002000000A2
S11325301400FFFFFFFF0200000000000000000085
S1132540451B0000551D0000271B00003B1B00001D
S1132550311B00001D1B0000FD1A0000211C00009F
S1132560091B0000F91A00004300000000000000ED
S1132570FFFFFFFF00C2010000000800FFFFFFFF94
S1132580080B00020202000009040000010202001C
S11325900005240010010424020605240600010598
S11325A02401010107058103100010090401000240
S11325B00A000000070502024000000705830240EC
S11325C000000000FFFFFFFF000000008300000088
S11325D00200000082000000000000000000000073
S11325E000000000000000000000000000000000E7
S11325F040420F0000000000000000000000000046
S113260000000000000000000000000000000000C6
S11326100000000068250000000000000000000029
S113262000000000000000000000000000000000A6
S11326300000000000000000000000000000000096
S11326400000000000000000000000000000000086
S11326500000000084000020DD000000B50500003B
S11326600D1500005D180000B5000000000000001A
S903015D9E
